{
  "_format": "hh-sol-artifact-1",
  "contractName": "Lottery",
  "sourceName": "contracts/Lottery.sol",
  "abi": [
    {
      "anonymous": false,
      "inputs": [
        {
          "indexed": false,
          "internalType": "address",
          "name": "winner",
          "type": "address"
        },
        {
          "indexed": false,
          "internalType": "uint256",
          "name": "amount",
          "type": "uint256"
        }
      ],
      "name": "Log",
      "type": "event"
    },
    {
      "anonymous": false,
      "inputs": [
        {
          "indexed": false,
          "internalType": "uint256",
          "name": "balance",
          "type": "uint256"
        },
        {
          "indexed": false,
          "internalType": "uint256",
          "name": "totalBalance",
          "type": "uint256"
        }
      ],
      "name": "Log",
      "type": "event"
    },
    {
      "anonymous": false,
      "inputs": [
        {
          "indexed": true,
          "internalType": "address",
          "name": "previousOwner",
          "type": "address"
        },
        {
          "indexed": true,
          "internalType": "address",
          "name": "newOwner",
          "type": "address"
        }
      ],
      "name": "OwnershipTransferred",
      "type": "event"
    },
    {
      "inputs": [],
      "name": "enter",
      "outputs": [],
      "stateMutability": "payable",
      "type": "function"
    },
    {
      "inputs": [],
      "name": "getParticipants",
      "outputs": [
        {
          "internalType": "address[]",
          "name": "",
          "type": "address[]"
        }
      ],
      "stateMutability": "view",
      "type": "function"
    },
    {
      "inputs": [],
      "name": "owner",
      "outputs": [
        {
          "internalType": "address",
          "name": "",
          "type": "address"
        }
      ],
      "stateMutability": "view",
      "type": "function"
    },
    {
      "inputs": [],
      "name": "renounceOwnership",
      "outputs": [],
      "stateMutability": "nonpayable",
      "type": "function"
    },
    {
      "inputs": [],
      "name": "selectWinner",
      "outputs": [],
      "stateMutability": "nonpayable",
      "type": "function"
    },
    {
      "inputs": [
        {
          "internalType": "address",
          "name": "newOwner",
          "type": "address"
        }
      ],
      "name": "transferOwnership",
      "outputs": [],
      "stateMutability": "nonpayable",
      "type": "function"
    }
  ],
  "bytecode": "0x60806040526706f05b59d3b20000600255600060035534801561002157600080fd5b5061003e61003361004360201b60201c565b61004b60201b60201c565b61010f565b600033905090565b60008060009054906101000a900473ffffffffffffffffffffffffffffffffffffffff169050816000806101000a81548173ffffffffffffffffffffffffffffffffffffffff021916908373ffffffffffffffffffffffffffffffffffffffff1602179055508173ffffffffffffffffffffffffffffffffffffffff168173ffffffffffffffffffffffffffffffffffffffff167f8be0079c531659141344cd1fd0a4f28419497f9722a3daafe3b4186f6b6457e060405160405180910390a35050565b610eeb8061011e6000396000f3fe6080604052600436106100555760003560e01c806333a99e041461005a5780635aa68ac014610071578063715018a61461009c5780638da5cb5b146100b3578063e97dcb62146100de578063f2fde38b146100e8575b600080fd5b34801561006657600080fd5b5061006f610111565b005b34801561007d57600080fd5b50610086610267565b604051610093919061089b565b60405180910390f35b3480156100a857600080fd5b506100b16102f5565b005b3480156100bf57600080fd5b506100c8610309565b6040516100d591906108cc565b60405180910390f35b6100e6610332565b005b3480156100f457600080fd5b5061010f600480360381019061010a9190610918565b6104bc565b005b61011961053f565b60036001805490501015801561013157506003805410155b610170576040517f08c379a0000000000000000000000000000000000000000000000000000000008152600401610167906109a2565b60405180910390fd5b60006001805490506101806105bd565b61018a91906109fb565b90506000600182815481106101a2576101a1610a2c565b5b9060005260206000200160009054906101000a900473ffffffffffffffffffffffffffffffffffffffff16905060004790508173ffffffffffffffffffffffffffffffffffffffff166108fc829081150290604051600060405180830381858888f1935050505015801561021a573d6000803e3d6000fd5b507ff950957d2407bed19dc99b718b46b4ce6090c05589006dfb86fd22c34865b23e828260405161024c929190610a6a565b60405180910390a160016000610262919061076d565b505050565b606060018054806020026020016040519081016040528092919081815260200182805480156102eb57602002820191906000526020600020905b8160009054906101000a900473ffffffffffffffffffffffffffffffffffffffff1673ffffffffffffffffffffffffffffffffffffffff16815260200190600101908083116102a1575b5050505050905090565b6102fd61053f565b61030760006105f3565b565b60008060009054906101000a900473ffffffffffffffffffffffffffffffffffffffff16905090565b61033a610309565b73ffffffffffffffffffffffffffffffffffffffff163373ffffffffffffffffffffffffffffffffffffffff16036103a7576040517f08c379a000000000000000000000000000000000000000000000000000000000815260040161039e90610adf565b60405180910390fd5b6002543410156103ec576040517f08c379a00000000000000000000000000000000000000000000000000000000081526004016103e390610b4b565b60405180910390fd5b6103f5336106b7565b610400576001610403565b60005b60ff16600360008282546104179190610b9a565b925050819055506001339080600181540180825580915050600190039060005260206000200160009091909190916101000a81548173ffffffffffffffffffffffffffffffffffffffff021916908373ffffffffffffffffffffffffffffffffffffffff1602179055507fbd0faddf87043dd749c1b9d4dca8a12589b8cb5e2106832111ce23f219b1436734476040516104b2929190610bce565b60405180910390a1565b6104c461053f565b600073ffffffffffffffffffffffffffffffffffffffff168173ffffffffffffffffffffffffffffffffffffffff1603610533576040517f08c379a000000000000000000000000000000000000000000000000000000000815260040161052a90610c69565b60405180910390fd5b61053c816105f3565b50565b610547610765565b73ffffffffffffffffffffffffffffffffffffffff16610565610309565b73ffffffffffffffffffffffffffffffffffffffff16146105bb576040517f08c379a00000000000000000000000000000000000000000000000000000000081526004016105b290610cd5565b60405180910390fd5b565b6000424460016040516020016105d593929190610e34565b6040516020818303038152906040528051906020012060001c905090565b60008060009054906101000a900473ffffffffffffffffffffffffffffffffffffffff169050816000806101000a81548173ffffffffffffffffffffffffffffffffffffffff021916908373ffffffffffffffffffffffffffffffffffffffff1602179055508173ffffffffffffffffffffffffffffffffffffffff168173ffffffffffffffffffffffffffffffffffffffff167f8be0079c531659141344cd1fd0a4f28419497f9722a3daafe3b4186f6b6457e060405160405180910390a35050565b600080600090505b60018054905081101561075a578273ffffffffffffffffffffffffffffffffffffffff16600182815481106106f7576106f6610a2c565b5b9060005260206000200160009054906101000a900473ffffffffffffffffffffffffffffffffffffffff1673ffffffffffffffffffffffffffffffffffffffff1603610747576001915050610760565b808061075290610e6d565b9150506106bf565b50600090505b919050565b600033905090565b508054600082559060005260206000209081019061078b919061078e565b50565b5b808211156107a757600081600090555060010161078f565b5090565b600081519050919050565b600082825260208201905092915050565b6000819050602082019050919050565b600073ffffffffffffffffffffffffffffffffffffffff82169050919050565b6000610802826107d7565b9050919050565b610812816107f7565b82525050565b60006108248383610809565b60208301905092915050565b6000602082019050919050565b6000610848826107ab565b61085281856107b6565b935061085d836107c7565b8060005b8381101561088e5781516108758882610818565b975061088083610830565b925050600181019050610861565b5085935050505092915050565b600060208201905081810360008301526108b5818461083d565b905092915050565b6108c6816107f7565b82525050565b60006020820190506108e160008301846108bd565b92915050565b600080fd5b6108f5816107f7565b811461090057600080fd5b50565b600081359050610912816108ec565b92915050565b60006020828403121561092e5761092d6108e7565b5b600061093c84828501610903565b91505092915050565b600082825260208201905092915050565b7f4e6565642033206f72206d6f7265207061727469636970616e74730000000000600082015250565b600061098c601b83610945565b915061099782610956565b602082019050919050565b600060208201905081810360008301526109bb8161097f565b9050919050565b6000819050919050565b7f4e487b7100000000000000000000000000000000000000000000000000000000600052601260045260246000fd5b6000610a06826109c2565b9150610a11836109c2565b925082610a2157610a206109cc565b5b828206905092915050565b7f4e487b7100000000000000000000000000000000000000000000000000000000600052603260045260246000fd5b610a64816109c2565b82525050565b6000604082019050610a7f60008301856108bd565b610a8c6020830184610a5b565b9392505050565b7f4f776e65722063616e6e6f742062652070617274696369706174650000000000600082015250565b6000610ac9601b83610945565b9150610ad482610a93565b602082019050919050565b60006020820190508181036000830152610af881610abc565b9050919050565b7f5469636b6574207072696365203e3d20302e3520657468657200000000000000600082015250565b6000610b35601983610945565b9150610b4082610aff565b602082019050919050565b60006020820190508181036000830152610b6481610b28565b9050919050565b7f4e487b7100000000000000000000000000000000000000000000000000000000600052601160045260246000fd5b6000610ba5826109c2565b9150610bb0836109c2565b9250828201905080821115610bc857610bc7610b6b565b5b92915050565b6000604082019050610be36000830185610a5b565b610bf06020830184610a5b565b9392505050565b7f4f776e61626c653a206e6577206f776e657220697320746865207a65726f206160008201527f6464726573730000000000000000000000000000000000000000000000000000602082015250565b6000610c53602683610945565b9150610c5e82610bf7565b604082019050919050565b60006020820190508181036000830152610c8281610c46565b9050919050565b7f4f776e61626c653a2063616c6c6572206973206e6f7420746865206f776e6572600082015250565b6000610cbf602083610945565b9150610cca82610c89565b602082019050919050565b60006020820190508181036000830152610cee81610cb2565b9050919050565b6000819050919050565b610d10610d0b826109c2565b610cf5565b82525050565b600081549050919050565b600081905092915050565b60008190508160005260206000209050919050565b610d4a816107f7565b82525050565b6000610d5c8383610d41565b60208301905092915050565b60008160001c9050919050565b600073ffffffffffffffffffffffffffffffffffffffff82169050919050565b6000610da8610da383610d68565b610d75565b9050919050565b6000610dbb8254610d95565b9050919050565b6000600182019050919050565b6000610dda82610d16565b610de48185610d21565b9350610def83610d2c565b8060005b83811015610e2757610e0482610daf565b610e0e8882610d50565b9750610e1983610dc2565b925050600181019050610df3565b5085935050505092915050565b6000610e408286610cff565b602082019150610e508285610cff565b602082019150610e608284610dcf565b9150819050949350505050565b6000610e78826109c2565b91507fffffffffffffffffffffffffffffffffffffffffffffffffffffffffffffffff8203610eaa57610ea9610b6b565b5b60018201905091905056fea264697066735822122087eeb7341e31fc25cfa649011ca8e09bc6950fbd13530fb38470d8ce336ef71364736f6c63430008130033",
  "linkReferences": {},
  "deployedLinkReferences": {}
}